:100000008A11F62FFF1B0C2883137F188317000813
:10001000840A0319FF0A080000308A000408840AD1
:1000200082070034013400340A340034643400346C
:10003000E834033410342734533474346534703462
:100040007334203420342D343E3425343334643436
:100050005B3475346E345D340034443465346C3450
:10006000613479342034203420342034253433343E
:1000700064345B346D3473345D34003448346F342D
:100080006C34613420344D3475346E3464346F34E0
:10009000003453346F34793420344D346134743443
:1000A00069346134733400342034203400342D3406
:0400B0003E340034A6
:1004FA007030831603138F04FC308F050800003018
:10050A008A11A9228A1101308A11A9228A110800A6
:10051A004130F100EE30F000F00B912AF10B912AF4
:10052A0000000800F100F0013A30710203189E2A17
:10053A009F2AA72A30307102031CA42AA52AA72AB7
:10054A00F001F00A700C0800F300831203138610FE
:10055A0073088A11DB228A118312031306150330EA
:10056A00F2009730F100F10BB82AF20BB82ABD2A33
:10057A008312031306110800831603139B018312C7
:10058A0003138501860183160313051485140511C7
:10059A00851105128516051785170614861006118A
:1005AA00861106128612061386170800F000701CC0
:1005BA00DF2AE02AE42A831203138615E72A831224
:1005CA0003138611F01CEA2AEB2AED2A0616EE2AF4
:1005DA000612701DF12AF22AF42A8616F52A8612C4
:1005EA00F01DF82AF92AFB2A0617FC2A0613080026
:1005FA00F401F501701C022B032B092B7208F40776
:10060A000318F50A7308F50701300310F20DF30D0C
:10061A00FF3E031D0A2B01300310F10CF00CFF3EC4
:10062A00031D112B70087104031D1C2B1D2BFF2A9F
:10063A007508F1007408F0000800F40074080F3916
:10064A00F1007108F2007408F039F1007108F30042
:10065A008312031386147308F10004300310F10C9B
:10066A00FF3E031D332B71088A11DB228A11831284
:10067A00031306150630F100F10B412B000083121B
:10068A000313061172088A11DB228A1183120313DB
:10069A0006150630F100F10B502B000083120313EC
:1006AA00061108007808790403195C2B5D2B8C2B42
:1006BA00FD01FD0A6B2B01300310F80DF90DFF3E09
:1006CA00031D612B0130FC007C08FD07F91F6E2B0E
:1006DA006F2B602B79087B02031D752B78087A0231
:1006EA00031C782B792B7F2B7808FA027908031CD4
:1006FA00FB03FB0201300310F90CF80CFF3E031D4B
:10070A00802B0130FD02031D8B2B8C2B6F2B7B085A
:10071A00F9007A08F8000800FA01FB01B22B7A08FE
:10072A007507F8007608F7000318F70AFA1F9E2BD8
:10073A00F7037708F900790883120313FF00780892
:10074A0084008A1102208A118A1122238A11013017
:10075A00FA070318FB0A0030FB077A087507F80046
:10076A007608F7000318F70AFA1FBC2BF703770875
:10077A00F900790883120313FF00780884008A11AC
:10078A0002208A11003A031DCB2BCC2B942B080094
:10079A0000308A11DB228A110D30F500FB30F4009B
:1007AA00F40BD52BF50BD52BDA2B03308A11A922A2
:1007BA008A110430F5003D30F400F40BE22BF50BFE
:1007CA00E22BE72B03308A11A9228A11A630F40002
:1007DA00F40BED2B000003308A11A9228A11023092
:1007EA008A11A9228A1102308A11A9228A11083093
:1007FA008A11A9228A1100308A11A9228A110C3081
:10080A008A11A9228A1100308A11A9228A11043078
:10081A008A11A9228A110800F501F60170087104EB
:10082A000319182C192C502CF701F70A272C013020
:10083A000310F00DF10DFF3E031D1D2C0130F400D5
:10084A007408F707F11F2A2C2B2C1C2C01300310DB
:10085A00F50DF60DFF3E031D2C2C71087302031DC6
:10086A00382C70087202031C3B2C3C2C432C700859
:10087A00F2027108031CF303F3027514013003102A
:10088A00F10CF00CFF3E031D442C0130F702031D4E
:10089A004F2C502C2B2C7608F1007508F00008001C
:1008AA00F7007403031D5A2C5B2C7A2C77087F3EC1
:1008BA00F5007508FA007A08F50004300310F50C03
:1008CA00FF3E031D632C7508F6007608F8007A08C7
:1008DA000F39F5007508F90078088A11A9228A11DA
:1008EA0079088A11A9228A11E92C02307406031D9B
:1008FA007F2C802C9F2C7708BF3EF5007508FA00E4
:10090A007A08F50004300310F50CFF3E031D882C0D
:10091A007508F6007608F8007A080F39F5007508A8
:10092A00F90078088A11A9228A1179088A11A9225C
:10093A008A11E92C03307406031DA42CA52CC42C9F
:10094A0077088F3EF5007508FA007A08F50004303A
:10095A000310F50CFF3E031DAD2C7508F600760852
:10096A00F8007A080F39F5007508F90078088A1135
:10097A00A9228A1179088A11A9228A11E92C04303C
:10098A007406031DC92CCA2CE92C7708CF3EF50042
:10099A007508FA007A08F50004300310F50CFF3EDA
:1009AA00031DD22C7508F6007608F8007A080F396C
:1009BA00F5007508F90078088A11A9228A117908C0
:1009CA008A11A9228A11E92C080083120313AD00A7
:1009DA002130A3002308A6003F2E25302E06031936
:1009EA00F72CF82C042D2E08A3002D0884002308C8
:1009FA00831380000130A3002308AD073F2EAB010B
:100A0A00AC01A801200884008A110C208A118A11DD
:100A1A0097228A11031C122D132D4B2D83120313B7
:100A2A00AB01AC010A30F0000030F100831203136D
:100A3A002C08F3002B08F2008A11FD228A11710892
:100A4A0083120313AC007008AB00200884008A11DB
:100A5A000C208A11D03EA300FF3003180030A400F6
:100A6A002308AB070318AC0A2408AC070130A3001B
:100A7A002308A007200884008A110C208A118A11F1
:100A8A0097228A1103184A2D4B2D172D01308312F4
:100A9A000313A007FF30200784008A110C208A1153
:100AAA00AE00A300A4012408003A03195D2D3F2ECD
:100ABA002308003A03194F2E643A0319682D0D3A98
:100ACA000319682D3F2E2608840083130008A90005
:100ADA00840A0008AA000230A3002308A607AA1F56
:100AEA00772D782D812D0330A3002308A804A909A6
:100AFA00AA09A90A0319AA0AAE01AE0A2E08A30076
:100B0A002307013E84008A110C208A11A4008A114D
:100B1A000C208A11A50025082A02031D962D2408F7
:100B2A0029020318992D9A2D9B2DA52D0130A3007A
:100B3A002308AE0705302E06031DA42DA52D832DEF
:100B4A002B082C040319AA2DAB2DB72D280803391D
:100B5A000319B02DB12DB72DFF30AB070318AC0A1E
:100B6A00FF30AC072C08803A803C031DBE2D2B08B1
:100B7A002E020318C12DC22DCE2D831203132E0867
:100B8A00A300A4012308AB022408031CAC03AC0293
:100B9A00D22D83120313AB01AC012B082C040319C9
:100BAA00D72DD82DEF2D2030A3002D08840023083F
:100BBA00831380000130A3002308AD07FF30AB0781
:100BCA000318AC0AFF30AC072B082C04031DEE2DCA
:100BDA00EF2DD82D280803390319F42DF52D002EF1
:100BEA002D30A3002D0884002308831380000130D0
:100BFA00A3002308AD072E08A3002308A700362E5A
:100C0A000A30F8000030F9002708A3002307013E44
:100C1A0084008A110C208A11F0008A110C208A1192
:100C2A00F1002A08F3002908F2008A1111248A1116
:100C3A007108FB007008FA008A1157238A11780894
:100C4A00303E83120313A4002408AE002E08A3002A
:100C5A002D0884002308831380000130A300230891
:100C6A00AD07FF30A3002308A707270A031D3E2E5E
:100C7A003F2E052E0130A007FF30200784008A117D
:100C8A000C208A11A3002308AE002E08031D4E2E45
:100C9A004F2EF22C2D088400831380010800831242
:100CAA000313C901CA01C601C7013230CB000030A3
:100CBA00CC00C8018A117D228A118A11C1228A11A7
:100CCA008A11CD238A118A1184228A11F401F40A25
:100CDA0001308A1155248A112D30F5008030F60032
:100CEA008A1191238A11023083120313AF002F084D
:100CFA00F40001308A1155248A113830F500803009
:100D0A00F6008A1191238A11033083120313B1006A
:100D1A008A30B0005530AF00AF0B912EB00B912E38
:100D2A00B10B912E0B3083120313AF002F08A000D2
:100D3A003230A1000030A20032308A11EA248A112E
:100D4A00F401F40A01308A1155248A113230F5006F
:100D5A000030F6008A1191238A111C308312031382
:100D6A00AF002F08A0001E30A1000030A2003230D0
:100D7A008A11EA248A11023083120313AF002F0862
:100D8A00F40001308A1155248A113230F5000030FE
:100D9A00F6008A1191238A118B1783160313011304
:100DAA008B100B120B108B1183120313851FDE2E6F
:100DBA00DF2E492F0130C6070318C70A0030C707BC
:100DCA00073083120313B0007C30AF00AF0BEB2E59
:100DDA00B00BEB2E0000831203134708803AFF0082
:100DEA0080307F02031DFB2E05304602031CFE2EB7
:100DFA00FF2E452F831203134803031D052F062FC9
:100E0A00242FC8010230AF002F08F40008308A11DD
:100E1A0055248A114330F5008030F6008A11912357
:100E2A008A11F401F40A08308A1155248A114630CD
:100E3A00F5008030F6008A1191238A11492FC801E2
:100E4A00C80AF401F40A08308A1155248A11433079
:100E5A00F5008030F6008A1191238A11023083123C
:100E6A000313AF002F08F40008308A1155248A11A1
:100E7A004630F5008030F6008A1191238A11492FF5
:100E8A0083120313C601C701831203130508051C45
:100E9A004F2F502F972F0130CF000030D0008B15E5
:100EAA0051030319592F5A2F5E2F861F5D2F5E2F6C
:100EBA00952F851C612F622F7E2F051105160B16A3
:100ECA004E08803AAF004C08803A2F02031D6F2F5C
:100EDA004B084D02031C722F732FF32F8312031337
:100EEA00051205110B12CD01CE018A118D228A112C
:100EFA00D92E051205150B164E08803AAF004C087C
:100F0A00803A2F02031D8B2F4B084D02031C8E2F94
:100F1A008F2FF32F83120313051205110B12782F4B
:100F2A00D101D92ECF01D0018B11051F9D2F9E2FE4
:100F3A00C42F0D3083120313B000FB30AF00AF0B88
:100F4A00A42FB00BA42F013083120313C90703186F
:100F5A00CA0A0030CA074A08803AFF0080307F0276
:100F6A00031DB92F05304902031CBC2FBD2FC52F05
:100F7A0083120313C901CA0105110516C52F0512EB
:100F8A0083120313851ECA2FCB2FF12F0D30831224
:100F9A000313B000FB30AF00AF0BD12FB00BD12F32
:100FAA00013083120313C9070318CA0A0030CA079B
:100FBA004A08803AFF0080307F02031DE62F053081
:100FCA004902031CE92FEA2FF32F83120313C901E5
:100FDA00CA0105120515D92E0511D92ED92E8A1145
:100FEA00002883120313CD01CE01CF01D001D10114
:060FFA0083018A11542E50
:04400E00503FFC3FE4
:00000001FF
