:100000008A11FD2F00308A000408840A8207003418
:1000100048346F346C34613420344D3475346E346C
:1000200064346F34003453346F34793420344D34B5
:0C0030006134743469346134733400347A
:100C5A007030831603138F04FC308F0508000030B0
:100C6A008A113D268A1101308A113D268A1108000F
:100C7A00F30083120313861073088A118E268A11D1
:100C8A008312031306150330F2009730F100F10BBB
:100C9A004C2EF20B4C2E512E831203130611080010
:100CAA00831603139B01831203138501860183169E
:100CBA0003130514851405118511051285160517E8
:100CCA008517061486100611861106128612061357
:100CDA0086170800F700F501F601822E75087707D6
:100CEA0084008A1102208A118A11B0268A110130E1
:100CFA00F5070318F60A0030F60775087707840027
:100D0A008A1102208A11003A031D8C2E8D2E732E11
:100D1A000800F000701C922E932E972E8312031354
:100D2A0086159A2E831203138611F01C9D2E9E2E71
:100D3A00A02E0616A12E0612701DA42EA52EA72ED1
:100D4A008616A82E8612F01DAB2EAC2EAE2E0617D6
:100D5A00AF2E06130800F40074080F39F100710869
:100D6A00F2007408F039F1007108F30083120313DA
:100D7A0086147308F10004300310F10CFF3E031DC2
:100D8A00C12E71088A118E268A1183120313061541
:100D9A000630F100F10BCF2E000083120313061167
:100DAA0072088A118E268A118312031306150630D9
:100DBA00F100F10BDE2E0000831203130611080066
:100DCA008A112D268A118A1155268A118A112427F9
:100DDA008A118A1134268A11F401F40A01308A111F
:100DEA0068278A1101308A116F268A110330FD00A3
:100DFA008A30FC005530FB00FB0B012FFC0B012F46
:100E0A00FD0B012F082F0230FB007B08F400013094
:100E1A008A1168278A110C308A116F268A110430C8
:100E2A00FD000C30FC003330FB00FB0B1A2FFC0BCF
:100E3A001A2FFD0B1A2F212F212F8A11002800307B
:100E4A008A118E268A110D30F500FB30F400F40B5E
:100E5A002C2FF50B2C2F312F03308A113D268A11A6
:100E6A000430F5003D30F400F40B392FF50B392F1F
:100E7A003E2F03308A113D268A11A630F400F40B66
:100E8A00442F000003308A113D268A1102308A114C
:100E9A003D268A1102308A113D268A1108308A11AC
:100EAA003D268A1100308A113D268A110C308A119A
:100EBA003D268A1100308A113D268A1104308A1192
:100ECA003D268A110800F7007403031D6D2F6E2F4B
:100EDA008D2F77087F3EF5007508FA007A08F5002D
:100EEA0004300310F50CFF3E031D762F7508F6003B
:100EFA007608F8007A080F39F5007508F9007808BD
:100F0A008A113D268A1179088A113D268A11FC2FF9
:100F1A0002307406031D922F932FB22F7708BF3E1B
:100F2A00F5007508FA007A08F50004300310F50C8C
:100F3A00FF3E031D9B2F7508F6007608F8007A0815
:100F4A000F39F5007508F90078088A113D268A11CB
:100F5A0079088A113D268A11FC2F03307406031D75
:100F6A00B72FB82FD72F77088F3EF5007508FA00EC
:100F7A007A08F50004300310F50CFF3E031DC02F5C
:100F8A007508F6007608F8007A080F39F500750832
:100F9A00F90078088A113D268A1179088A113D26B6
:100FAA008A11FC2F04307406031DDC2FDD2FFC2F61
:100FBA007708CF3EF5007508FA007A08F500043084
:100FCA000310F50CFF3E031DE52F7508F6007608A1
:100FDA00F8007A080F39F5007508F90078088A11BF
:100FEA003D268A1179088A113D268A11FC2F0800AC
:060FFA0083018A11E52EBF
:04400E00503FFC3FE4
:00000001FF
