:100000008A11FD2F00308A000408840A8207003418
:1000100048346F346C34613420344D3475346E346C
:1000200064346F34003453346F34793420344D34B5
:0C0030006134743469346134733400347A
:100C62007030831603138F04FC308F0508000030A8
:100C72008A1141268A1101308A1141268A110800FF
:100C8200F30083120313861073088A1192268A11C5
:100C92008312031306150330F2009730F100F10BB3
:100CA200502EF20B502E552E8312031306110800FC
:100CB200831603139B018312031385018601831696
:100CC20003130514851405118511051285160517E0
:100CD200851706148610061186110612861206134F
:100CE20086170800F700F501F601862E75087707CA
:100CF20084008A1102208A118A11B4268A110130D5
:100D0200F5070318F60A0030F6077508770784001E
:100D12008A1102208A11003A031D902E912E772EFD
:100D22000800F000701C962E972E9B2E8312031340
:100D320086159E2E831203138611F01CA12EA22E5D
:100D4200A42E0616A52E0612701DA82EA92EAB2EB5
:100D52008616AC2E8612F01DAF2EB02EB22E0617BE
:100D6200B32E06130800F40074080F39F10071085D
:100D7200F2007408F039F1007108F30083120313D2
:100D820086147308F10004300310F10CFF3E031DBA
:100D9200C52E71088A1192268A1183120313061531
:100DA2000630F100F10BD32E00008312031306115B
:100DB20072088A1192268A118312031306150630CD
:100DC200F100F10BE22E000083120313061108005A
:100DD2008A1131268A118A1159268A118A112427E9
:100DE2008A118A1138268A11F401F40A01308A1113
:100DF20068278A1101308A1173268A114130FC005A
:100E0200EE30FB00FB0B032FFC0B032F0000023024
:100E1200FB007B08F40001308A1168278A110C302C
:100E22008A1173268A110330FD008A30FC00553086
:100E3200FB00FB0B1A2FFC0B1A2FFD0B1A2F212F75
:100E4200212F8A11002800308A1192268A110D3032
:100E5200F500FB30F400F40B2C2FF50B2C2F312F67
:100E620003308A1141268A110430F5003D30F40026
:100E7200F40B392FF50B392F3E2F03308A114126FF
:100E82008A11A630F400F40B442F000003308A11BB
:100E920041268A1102308A1141268A1102308A11B2
:100EA20041268A1108308A1141268A1100308A119E
:100EB20041268A110C308A1141268A1100308A118A
:100EC20041268A1104308A1141268A110800F7004E
:100ED2007403031D6D2F6E2F8D2F77087F3EF50053
:100EE2007508FA007A08F50004300310F50CFF3E8D
:100EF200031D762F7508F6007608F8007A080F3978
:100F0200F5007508F90078088A1141268A117908D6
:100F12008A1141268A11FC2F02307406031D922F7A
:100F2200932FB22F7708BF3EF5007508FA007A08B2
:100F3200F50004300310F50CFF3E031D9B2F7508CE
:100F4200F6007608F8007A080F39F5007508F900FE
:100F520078088A1141268A1179088A1141268A1154
:100F6200FC2F03307406031DB72FB82FD72F770835
:100F72008F3EF5007508FA007A08F5000430031078
:100F8200F50CFF3E031DC02F7508F6007608F80029
:100F92007A080F39F5007508F90078088A11412698
:100FA2008A1179088A1141268A11FC2F04307406AD
:100FB200031DDC2FDD2FFC2F7708CF3EF5007508CF
:100FC200FA007A08F50004300310F50CFF3E031D09
:100FD200E52F7508F6007608F8007A080F39F50053
:100FE2007508F90078088A1141268A1179088A1150
:0E0FF20041268A11FC2F080083018A11E92E86
:04400E00503FFC3FE4
:00000001FF
