:100000008A11F62F00308A000408840A820700341F
:1000100048346F346C34613420344D3475346E346C
:1000200064346F34003453346F34793420344D34B5
:0C0030006134743469346134733400347A
:100AD6007030831603138F04FC308F050800003036
:100AE6008A1185258A1101308A1185258A11080007
:100AF6004130F100EE30F000F00B7F2DF10B7F2D31
:100B060000000800F30083120313861073088A118D
:100B1600D6258A118312031306150330F200973087
:100B2600F100F10B942DF20B942D992D83120313E2
:100B360006110800831603139B0183120313850114
:100B460086018316031305148514051185110512F4
:100B560085160517851706148610061186110612C6
:100B66008612061386170800F700F501F601CA2D4E
:100B76007508770784008A1102208A118A11F825E0
:100B86008A110130F5070318F60A0030F6077508D2
:100B9600770784008A1102208A11003A031DD42D9A
:100BA600D52DBB2D0800F000701CDA2DDB2DDF2DB6
:100BB600831203138615E22D831203138611F01C8C
:100BC600E52DE62DE82D0616E92D0612701DEC2DF5
:100BD600ED2DEF2D8616F02D8612F01DF32DF42D3A
:100BE600F62D0617F72D06130800F40074080F39C2
:100BF600F1007108F2007408F039F1007108F30091
:100C06008312031386147308F10004300310F10CE9
:100C1600FF3E031D092E71088A11D6258A118312FB
:100C2600031306150630F100F10B172E0000831290
:100C36000313061172088A11D6258A11831203132B
:100C460006150630F100F10B262E00008312031361
:100C56000611080000308A11D6258A110D30F500DC
:100C6600FB30F400F40B352EF50B352E3A2E0330FF
:100C76008A1185258A110430F5003D30F400F40B05
:100C8600422EF50B422E472E03308A1185258A11F6
:100C9600A630F400F40B4D2E000003308A11852592
:100CA6008A1102308A1185258A1102308A1185251A
:100CB6008A1108308A1185258A1100308A11852506
:100CC6008A110C308A1185258A1100308A118525F2
:100CD6008A1104308A1185258A110800F7007403E9
:100CE600031D762E772E962E77087F3EF500750823
:100CF600FA007A08F50004300310F50CFF3E031DD8
:100D06007F2E7508F6007608F8007A080F39F50088
:100D16007508F90078088A1185258A1179088A11DB
:100D260085258A11052F02307406031D9B2E9C2EE5
:100D3600BB2E7708BF3EF5007508FA007A08F50065
:100D460004300310F50CFF3E031DA42E7508F600B3
:100D56007608F8007A080F39F5007508F900780862
:100D66008A1185258A1179088A1185258A11052F08
:100D760003307406031DC02EC12EE02E77088F3E69
:100D8600F5007508FA007A08F50004300310F50C32
:100D9600FF3E031DC92E7508F6007608F8007A088E
:100DA6000F39F5007508F90078088A1185258A112A
:100DB60079088A1185258A11052F04307406031DCA
:100DC600E52EE62E052F7708CF3EF5007508FA00CA
:100DD6007A08F50004300310F50CFF3E031DEE2ED5
:100DE6007508F6007608F8007A080F39F5007508D8
:100DF600F90078088A1185258A1179088A118525CE
:100E06008A11052F080083120313A701A8010530D4
:100E1600A5000030A6008A116B258A118A119D252E
:100E26008A118A112D268A118A1172258A11F401D6
:100E3600F40A01308A1171268A1101308A11B72508
:100E46008A114130FC00EE30FB00FB0B282FFC0B17
:100E5600282F00000230FB007B08F40001308A11C5
:100E660071268A110C308A11B7258A110330FD00CC
:100E76008A30FC005530FB00FB0B3F2FFC0B3F2F4D
:100E8600FD0B3F2F462F8B178316031301138B1071
:100E96000B120B108B1183120313051C532F542FA7
:100EA600992F0130A2000030A3008B1524030319EB
:100EB6005D2F5E2F622F861F612F622F4E2F851C9E
:100EC600652F662F822F051105160B162108803A0D
:100ED600FB002608803A7B02031D732F250820029B
:100EE600031C762F772FF32F831203130512051198
:100EF6000B12A001A1018A117B258A114E2F051222
:100F060005150B162108803AFB002608803A7B025D
:100F1600031D8F2F25082002031C922F932FF32FDA
:100F260083120313051205110B127C2FA201A301D4
:100F36008B11051F9F2FA02FC52F0D30FC00FB30F6
:100F4600FB00FB0BA42FFC0BA42FA92F013083124F
:100F56000313A7070318A80A0030A8072808803A31
:100F6600FF0080307F02031DBA2F05302702031CC5
:100F7600BD2FBE2FC62F83120313A701A80105118B
:100F86000516C62F051283120313851ECB2FCC2FF1
:100F9600F12F0D30FC00FB30FB00FB0BD02FFC0BC0
:100FA600D02FD52F013083120313A7070318A80AE1
:100FB6000030A8072808803AFF0080307F02031D12
:100FC600E62F05302702031CE92FEA2FF32F8312A1
:100FD6000313A701A801051205154E2F05114E2F63
:100FE6004E2F8A11002883120313A001A101A2012A
:0A0FF600A301A40183018A11062F54
:04400E00503FFC3FE4
:00000001FF
